{"abi":[{"type":"constructor","inputs":[{"name":"factory_","type":"address","internalType":"address"}],"stateMutability":"nonpayable"},{"type":"function","name":"factory","inputs":[],"outputs":[{"name":"","type":"address","internalType":"address"}],"stateMutability":"view"},{"type":"function","name":"mint","inputs":[{"name":"params","type":"tuple","internalType":"struct IUniswapV3Manager.MintParams","components":[{"name":"token0","type":"address","internalType":"address"},{"name":"token1","type":"address","internalType":"address"},{"name":"tickSpacing","type":"uint24","internalType":"uint24"},{"name":"lowerTick","type":"int24","internalType":"int24"},{"name":"upperTick","type":"int24","internalType":"int24"},{"name":"amount0Desired","type":"uint256","internalType":"uint256"},{"name":"amount1Desired","type":"uint256","internalType":"uint256"},{"name":"amount0Min","type":"uint256","internalType":"uint256"},{"name":"amount1Min","type":"uint256","internalType":"uint256"}]}],"outputs":[{"name":"amount0","type":"uint256","internalType":"uint256"},{"name":"amount1","type":"uint256","internalType":"uint256"}],"stateMutability":"nonpayable"},{"type":"function","name":"mint_old","inputs":[{"name":"poolAddress_","type":"address","internalType":"address"},{"name":"lowerTick_","type":"int24","internalType":"int24"},{"name":"upperTick_","type":"int24","internalType":"int24"},{"name":"liquidity_","type":"uint128","internalType":"uint128"},{"name":"data","type":"bytes","internalType":"bytes"}],"outputs":[],"stateMutability":"nonpayable"},{"type":"function","name":"swap","inputs":[{"name":"params","type":"tuple","internalType":"struct IUniswapV3Manager.SwapParams","components":[{"name":"path","type":"bytes","internalType":"bytes"},{"name":"recipient","type":"address","internalType":"address"},{"name":"amountIn","type":"uint256","internalType":"uint256"},{"name":"minAmountOut","type":"uint256","internalType":"uint256"}]}],"outputs":[{"name":"amountOut","type":"uint256","internalType":"uint256"}],"stateMutability":"nonpayable"},{"type":"function","name":"swapSingle","inputs":[{"name":"params","type":"tuple","internalType":"struct IUniswapV3Manager.SwapSingleParams","components":[{"name":"tokenIn","type":"address","internalType":"address"},{"name":"tokenOut","type":"address","internalType":"address"},{"name":"tickSpacing","type":"uint24","internalType":"uint24"},{"name":"amountIn","type":"uint256","internalType":"uint256"},{"name":"sqrtPriceLimitX96","type":"uint160","internalType":"uint160"}]}],"outputs":[{"name":"amountOut","type":"uint256","internalType":"uint256"}],"stateMutability":"nonpayable"},{"type":"function","name":"swap_old","inputs":[{"name":"poolAddress_","type":"address","internalType":"address"},{"name":"zeroForOne","type":"bool","internalType":"bool"},{"name":"amountIn","type":"uint256","internalType":"uint256"},{"name":"sqrtPriceLimitX96","type":"uint160","internalType":"uint160"},{"name":"data","type":"bytes","internalType":"bytes"}],"outputs":[{"name":"amount0","type":"int256","internalType":"int256"},{"name":"amount1","type":"int256","internalType":"int256"}],"stateMutability":"nonpayable"},{"type":"function","name":"uniswapV3MintCallback","inputs":[{"name":"amount0","type":"uint256","internalType":"uint256"},{"name":"amount1","type":"uint256","internalType":"uint256"},{"name":"data","type":"bytes","internalType":"bytes"}],"outputs":[],"stateMutability":"nonpayable"},{"type":"function","name":"uniswapV3SwapCallback","inputs":[{"name":"amount0","type":"int256","internalType":"int256"},{"name":"amount1","type":"int256","internalType":"int256"},{"name":"data","type":"bytes","internalType":"bytes"}],"outputs":[],"stateMutability":"nonpayable"},{"type":"error","name":"PRBMath__MulDivOverflow","inputs":[{"name":"prod1","type":"uint256","internalType":"uint256"},{"name":"denominator","type":"uint256","internalType":"uint256"}]},{"type":"error","name":"SlippageCheckFailed","inputs":[{"name":"amount0","type":"uint256","internalType":"uint256"},{"name":"amount1","type":"uint256","internalType":"uint256"}]},{"type":"error","name":"TooLittleReceived","inputs":[{"name":"amountOut","type":"uint256","internalType":"uint256"}]}],"bytecode":{"object":"0x60a034607457601f614ccc38819003918201601f19168301916001600160401b03831184841017607857808492602094604052833981010312607457516001600160a01b0381168103607457608052604051614c3f908161008d8239608051818181610343015281816105e10152611a3c0152f35b5f80fd5b634e487b7160e01b5f52604160045260245ffdfe60806040526004361015610011575f80fd5b5f3560e01c8063049bbb121461009457806329f9443c1461008f5780636d3153281461008a578063aa88a96c14610085578063c45a015514610080578063cf8c2a381461007b578063d3487997146100765763fa461e3314610071575f80fd5b6108f9565b61079f565b61070a565b6105cc565b61030d565b61020c565b61018b565b346101495760a0366003190112610149576101456101356064356084356100ba8161014d565b6004356100c68161014d565b6100ce610a22565b602435916100db8361014d565b6001600160601b03199060601b1660a05262ffffff60e81b9060e81b1660b4526001600160601b03199060601b1660b752602b60805261011b604b610624565b610123610687565b60808152336020820152913390610f10565b6040519081529081906020820190565b0390f35b5f80fd5b6001600160a01b0381160361014957565b9181601f84011215610149578235916001600160401b038311610149576020838186019501011161014957565b346101495760a0366003190112610149576004356101a88161014d565b602435801515810361014957604435916064356101c48161014d565b608435936001600160401b038511610149576101e76101ef95369060040161015e565b949093610aa7565b60408051928352602083019190915290f35b8060020b0361014957565b346101495760a0366003190112610149576004356102298161014d565b60243561023581610201565b6044359161024283610201565b606435906001600160801b038216820361014957608435936001600160401b038511610149575f6040946102c56102856001600160801b0398369060040161015e565b8851998a9889978896633c8a7d8d60e01b885233600489015260020b602488015260020b604487015216606485015260a0608485015260a4840191610a7c565b03926001600160a01b03165af18015610308576102de57005b6102ff9060403d604011610301575b6102f78183610666565b810190610a66565b005b503d6102ed565b610a9c565b346101495761012036600319011261014957610373610367610367610330610a07565b610338610a16565b610340610a22565b917f0000000000000000000000000000000000000000000000000000000000000000610fae565b6001600160a01b031690565b60408051633850c7bd60e01b81529081600481855afa8015610308576103c3915f91610592575b506103ab6103a6610b9f565b6114da565b6103b66103a6610bab565b60a4359160c435936117ba565b906103cc610b9f565b916103d5610bab565b604051630dfe168160e01b81529290602084600481855afa938415610308575f94610571575b5060405163d21220a760e01b8152602081600481865afa958615610308576104a960409661045a61049b995f958691610542575b5061044a61043b610698565b6001600160a01b039094168452565b6001600160a01b03166020830152565b3381890152875181516001600160a01b0390811660208084019190915283015181166040808401919091529092015190911660608201529788906080820190565b03601f198101895288610666565b6104c9865197889687958694633c8a7d8d60e01b86523360048701610bf0565b03925af1908115610308575f905f92610520575b5060e43581108015610514575b6104ff57604080519182526020820192909252f35b630a8f6c8d60e41b5f5260045260245260445ffd5b506101043582106104ea565b905061053b915060403d604011610301576102f78183610666565b905f6104dd565b610564915060203d60201161056a575b61055c8183610666565b810190610bb7565b5f61042f565b503d610552565b61058b91945060203d60201161056a5761055c8183610666565b925f6103fb565b6105b4915060403d6040116105bb575b6105ac8183610666565b810190610b7a565b505f61039a565b503d6105a2565b5f91031261014957565b34610149575f366003190112610149576040517f00000000000000000000000000000000000000000000000000000000000000006001600160a01b03168152602090f35b634e487b7160e01b5f52604160045260245ffd5b601f8019910116608001608081106001600160401b0382111761064657604052565b610610565b608081019081106001600160401b0382111761064657604052565b90601f801991011681019081106001600160401b0382111761064657604052565b60405190610696604083610666565b565b60405190610696606083610666565b906106966040519283610666565b81601f82011215610149578035906001600160401b03821161064657604051926106e9601f8401601f191660200185610666565b8284526020838301011161014957815f926020809301838601378301015290565b34610149576020366003190112610149576004356001600160401b038111610149576080600319823603011261014957604051906107478261064b565b8060040135916001600160401b0383116101495760646101359261077461014595600436918401016106b5565b835260248101356107848161014d565b60208401526044810135604084015201356060820152610c2f565b34610149576060366003190112610149576004356024356044356001600160401b038111610149576107d86107e091369060040161015e565b810190610ccd565b80516107f690610367906001600160a01b031681565b6040820180519094919291906001600160a01b031690833b15610149576040516323b872dd60e01b81526001600160a01b039290921660048301523360248301526044820152915f908390606490829084905af19081156103085761036760206103679261088495610876956108e5575b5001516001600160a01b031690565b92516001600160a01b031690565b90823b15610149576040516323b872dd60e01b81526001600160a01b0390921660048301523360248301526044820152905f908290818381606481015b03925af18015610308576108d157005b806108df5f6102ff93610666565b806105c2565b806108df5f6108f393610666565b5f610867565b34610149576060366003190112610149576004356024356044356001600160401b03811161014957602061093f61093761097193369060040161015e565b810190610d2b565b9361094a8551611970565b506001600160a01b039182169591168510156109ff5750935b01516001600160a01b031690565b6001600160a01b03811630036109bd5750803b156101495760405163a9059cbb60e01b815233600482015260248101929092525f908290604490829084905af18015610308576108d157005b9091823b15610149576040516323b872dd60e01b81526001600160a01b0390921660048301523360248301526044820152905f908290818381606481016108c1565b905093610963565b600435610a138161014d565b90565b602435610a138161014d565b60443562ffffff811681036101495790565b634e487b7160e01b5f52601160045260245ffd5b6001600160a01b039182169082160391908211610a6157565b610a34565b9190826040910312610149576020825192015190565b908060209392818452848401375f828201840152601f01601f1916010190565b6040513d5f823e3d90fd5b915f90610b1b60409660a09894966001808b1b038116158514610b745750868414610b5a576401000276a45b945b8851998a9889978896631bab425b60e31b88526004880192600180861b0333168452151560208401528c830152600180841b031660608201528160808201520191610a7c565b03926001600160a01b03165af18015610308575f915f91610b3b57509091565b9050610b56915060403d604011610301576102f78183610666565b9091565b73fffd8963efd1fc6a506488495d951d5263988d25610ad3565b94610ad5565b91908260409103126101495760208251610b938161014d565b920151610a1381610201565b606435610a1381610201565b608435610a1381610201565b908160209103126101495751610a138161014d565b805180835260209291819084018484015e5f828201840152601f01601f1916010190565b919360a093610a1396956001600160801b0393600180881b0316855260020b602085015260020b60408401521660608201528160808201520190610bcc565b90335b82515160421115610c7b60408501928351835f14610cb95730905b610c76610c5a8951611854565b93610c63610687565b9485526001600160a01b03166020850152565b610e1b565b8092525f14610c97575030610c9083516118df565b8352610c32565b6060909201518210610ca557565b6308e0955f60e31b5f52600482905260245ffd5b60208701516001600160a01b031690610c4d565b90816060910312610149576040519060608201908282106001600160401b038311176106465760409182528035610d038161014d565b83526020810135610d138161014d565b60208401520135610d238161014d565b604082015290565b602081830312610149578035906001600160401b0382116101495701906040828203126101495760405191604083018381106001600160401b038211176106465760405280356001600160401b03811161014957602092610d8d9183016106b5565b83520135610d9a8161014d565b602082015290565b602081526040610dbd83518260208501526060840190610bcc565b6020909301516001600160a01b031691015290565b6001600160a01b039182168152911515602083015260408201929092529116606082015260a060808201819052610a1392910190610bcc565b600160ff1b8114610a61575f0390565b604090610e4d93926103675f610e318651611970565b6001600160a01b0380831690841610998a959093909290611a17565b92828214610eec57610e9e610e74610e826401000276a4995b895192839160208301610da2565b03601f198101835282610666565b8751631bab425b60e31b81529889978896879560048701610dd2565b03925af190811561030857610a13925f915f93610ec9575b5015610ec25750610e0b565b9050610e0b565b909250610ee5915060403d604011610301576102f78183610666565b915f610eb6565b610e9e610e74610e8273fffd8963efd1fc6a506488495d951d5263988d2599610e66565b610f4293926103675f604094610f268751611970565b6001600160a01b03808316908416109a8b969093909290611a17565b936001600160a01b038116158314610f9e5750828214610f7b57610e9e610e74610e826401000276a45b99895192839160208301610da2565b610e9e610e74610e8273fffd8963efd1fc6a506488495d951d5263988d25610f6c565b610e74610e82610e9e9299610e66565b919291906001600160a01b03808516908216101561014957610a1393610367936040519160208301936001600160601b03199060601b1684526001600160601b03199060601b16603483015262ffffff60e81b9060e81b166048820152602b815261101a604b82610666565b519020611083612eaf61102f602082016106a7565b8181526020810191611d5b83395190206040516001600160f81b03196020820190815260609590951b6bffffffffffffffffffffffff19166021820152603581019390935260558301528160758101610e74565b5190206001600160a01b031690565b1561109957565b60405162461bcd60e51b81526020600482015260016024820152601560fa1b6044820152606490fd5b906ffff97272373d413259a46990580e213a8202918083046ffff97272373d413259a46990580e213a1490151715610a6157565b906ffff2e50f5f656932ef12357cf3c7fdcc8202918083046ffff2e50f5f656932ef12357cf3c7fdcc1490151715610a6157565b906fffe5caca7e10e4e61c3624eaa0941cd08202918083046fffe5caca7e10e4e61c3624eaa0941cd01490151715610a6157565b906fffcb9843d60f6159c9db58835c9266448202918083046fffcb9843d60f6159c9db58835c9266441490151715610a6157565b906fff973b41fa98c081472e6896dfb254c08202918083046fff973b41fa98c081472e6896dfb254c01490151715610a6157565b906fff2ea16466c96a3843ec78b326b528618202918083046fff2ea16466c96a3843ec78b326b528611490151715610a6157565b906ffe5dee046a99a2a811c461f1969c30538202918083046ffe5dee046a99a2a811c461f1969c30531490151715610a6157565b906ffcbe86c7900a88aedcffc83b479aa3a48202918083046ffcbe86c7900a88aedcffc83b479aa3a41490151715610a6157565b906ff987a7253ac413176f2b074cf7815e548202918083046ff987a7253ac413176f2b074cf7815e541490151715610a6157565b906ff3392b0822b70005940c7a398e4b70f38202918083046ff3392b0822b70005940c7a398e4b70f31490151715610a6157565b906fe7159475a2c29b7443b29c7fa6e889d98202918083046fe7159475a2c29b7443b29c7fa6e889d91490151715610a6157565b906fd097f3bdfd2022b8845ad8f792aa58258202918083046fd097f3bdfd2022b8845ad8f792aa58251490151715610a6157565b906fa9f746462d870fdf8a65dc1f90e061e58202918083046fa9f746462d870fdf8a65dc1f90e061e51490151715610a6157565b906f70d869a156d2a1b890bb3df62baf32f78202918083046f70d869a156d2a1b890bb3df62baf32f71490151715610a6157565b906f31be135f97d08fd981231505542fcfa68202918083046f31be135f97d08fd981231505542fcfa61490151715610a6157565b906f09aa508b5b7a84e1c677de54f3e99bc98202918083046f09aa508b5b7a84e1c677de54f3e99bc91490151715610a6157565b906e5d6af8dedb81196699c329225ee6048202918083046e5d6af8dedb81196699c329225ee6041490151715610a6157565b906d2216e584f5fa1ea926041bedfe988202918083046d2216e584f5fa1ea926041bedfe981490151715610a6157565b906b048a170391f7dc42444e8fa28202918083046b048a170391f7dc42444e8fa21490151715610a6157565b634e487b7160e01b5f52601260045260245ffd5b80156114b0575f190490565b611490565b81156114b0570490565b90601f8201809211610a6157565b91908201809211610a6157565b610367610a139160020b5f81125f146117b4576114f681610e0b565b905b611507620d89e8831115611092565b60018216156117a2576001600160881b036ffffcb933bd6fad37aa2d162d1a5940015b16916002811661178f575b6004811661177c575b60088116611769575b60108116611756575b60208116611743575b60408116611730575b6080811661171d575b610100811661170a575b61020081166116f7575b61040081166116e4575b61080081166116d1575b61100081166116be575b61200081166116ab575b6140008116611698575b6180008116611685575b620100008116611672575b62020000811661165f575b620400008116611646575b620800001661162a575b5f1261161c575b6116046115fa8260201c90565b9163ffffffff1690565b6116135760ff5f5b16906114cd565b60ff600161160c565b611625906114a4565b6115ed565b9061163e6116385f92611464565b60801c90565b9190506115e6565b916116576116386208000092611434565b9290506115dc565b9161163861166c91611402565b916115d1565b9161163861167f916113ce565b916115c6565b916116386116929161139a565b916115bb565b916116386116a591611366565b916115b1565b916116386116b891611332565b916115a7565b916116386116cb916112fe565b9161159d565b916116386116de916112ca565b91611593565b916116386116f191611296565b91611589565b9161163861170491611262565b9161157f565b916116386117179161122e565b91611575565b9161163861172a916111fa565b9161156b565b9161163861173d916111c6565b91611562565b9161163861175091611192565b91611559565b916116386117639161115e565b91611550565b916116386117769161112a565b91611547565b91611638611789916110f6565b9161153e565b9161163861179c916110c2565b91611535565b6001600160881b03600160801b61152a565b806114f8565b936001600160a01b038381169083161161184c575b6001600160a01b038581169590831686116117f0575050610a139350611ab1565b919490939192906001600160a01b038216106118405782916118169161181c9594611ab1565b93611a6e565b6001600160801b0381166001600160801b038316105f1461183b575090565b905090565b915050610a1392611a6e565b9091906117cf565b602b9061186b82611864816114bf565b1015611b0a565b611881815161187a845f6114cd565b1115611b47565b816118985750506040515f81526020810160405290565b60405191601f811691821560051b808486010193838501920101905b8084106118cc5750508252601f01601f191660405290565b90926020809185518152019301906118b4565b80516016198101818111610a61576118fa81611864816114bf565b61190a835161187a8360176114cd565b80611922575050506040515f81526020810160405290565b604051926017601f8316801560051b908181880101956016199087010193010101905b80841061195d5750508252601f01601f191660405290565b9092602080918551815201930190611945565b9060148251106119da57602082015160601c91601781511061199e5761199b60178083015192611b87565b91565b60405162461bcd60e51b8152602060048201526014602482015273746f55696e7432345f6f75744f66426f756e647360601b6044820152606490fd5b60405162461bcd60e51b8152602060048201526015602482015274746f416464726573735f6f75744f66426f756e647360581b6044820152606490fd5b916001600160a01b038281169084161015611a6457611a60915b6001600160a01b03937f0000000000000000000000000000000000000000000000000000000000000000610fae565b1690565b611a609192611a31565b6001600160801b0392611a609290916001600160a01b0380831690821611611aab575b6001600160a01b0391611aa49190610a48565b1690611ba6565b90611a91565b6001600160801b0392611a60929091906001600160a01b0380821690831611611b04575b611afd611aee6001600160a01b03838116908516611c4e565b926001600160a01b0392610a48565b1691611cb9565b90611ad5565b15611b1157565b60405162461bcd60e51b815260206004820152600e60248201526d736c6963655f6f766572666c6f7760901b6044820152606490fd5b15611b4e57565b60405162461bcd60e51b8152602060048201526011602482015270736c6963655f6f75744f66426f756e647360781b6044820152606490fd5b9081516014820190818311610a6157106119da57016020015160601c90565b5f19600160601b8209918160601b91828085109403938085039414611c425781841015611c29578190600160601b9009600182190182168092046002816003021880820260020302808202600203028082026002030280820260020302808202600203028091026002030293600183805f03040190848311900302920304170290565b631dcf306360e21b5f526004849052602482905260445ffd5b5090610a1392506114b5565b5f198282099082810292838084109303928084039314611cab57600160601b831015611c8d57600160601b910990828211900360a01b910360601c1790565b631dcf306360e21b5f9081526004849052600160601b602452604490fd5b50600160601b929150500490565b90915f198383099280830292838086109503948086039514611d4d5782851015611d345790829109600182190182168092046002816003021880820260020302808202600203028082026002030280820260020302808202600203028091026002030293600183805f03040190848311900302920304170290565b631dcf306360e21b5f526004859052602483905260445ffd5b505090610a1392506114b556fe610100806040523461014757630890357360e41b81526080816004815f335af18015610166575f915f915f915f916100cd575b5060e05260c05260a052608052604051612d29908161018682396080518161127c015260a05181818161029801528181610fb00152818161100e0152818161150e01528181611d1e015261271b015260c0518181816102c301528181610dea01528181610e48015281816111f70152818161148b01526127a1015260e0518181816102ee0152818161124201528181611be80152611c1f0152f35b935050505060803d60801161015f575b601f8101601f191682016001600160401b0381118382101761014b576080918391604052810103126101475761011281610171565b9061011f60208201610171565b91606061012e60408401610171565b9201519062ffffff82168203610147579291905f610032565b5f80fd5b634e487b7160e01b5f52604160045260245ffd5b503d6100dd565b6040513d5f823e3d90fd5b51906001600160a01b03821682036101475756fe6080806040526004361015610012575f80fd5b5f905f3560e01c9081630dfe168114611d0c575080631a68650214611ce65780633850c7bd14611cb35780633c8a7d8d1461158f5780634a18239214611314578063514ea4bf146112e15780635339c296146112ab578063c45a015514611266578063d0c93a7c14611226578063d21220a7146111e1578063dd5a12d8146101e2578063f30dba93146101825763f637731d146100ad575f80fd5b3461017f57602036600319011261017f576100c6611d4d565b6001600160a01b038116906401000276a382108015610162575b6101535782546001600160a01b0316610145576100fc90612840565b9060405161010981611d91565b818152600283900b602090910152825460a09290921b62ffffff60a01b166001600160b81b031990921662ffffff60a01b199091161717815580f35b62dc149f60e41b8352600483fd5b632d4eeeb360e21b8352600483fd5b5073fffd8963efd1fc6a506488495d951d5263988d2682116100e0565b80fd5b503461017f57602036600319011261017f576004358060020b8091036101de57816040916060935260026020522060018154910154600f0b6001600160801b036040519260ff81161515845260081c1660208301526040820152f35b5080fd5b503461017f5760a036600319011261017f576101fc611d4d565b6024351515602435036101de576064356001600160a01b03811681036111dd5760843567ffffffffffffffff81116111d95761023c903690600401611d63565b610247929192611e0e565b936001600160801b03600154169360018060a01b03865116947f569a9652a523395272195d6307888d77fc4d96dde5519d31be0ce7b96e792b5260c0602089015160020b6040519060018060a01b037f000000000000000000000000000000000000000000000000000000000000000016825260018060a01b037f000000000000000000000000000000000000000000000000000000000000000016602083015262ffffff7f000000000000000000000000000000000000000000000000000000000000000016998a6040840152606083015260808201528360a0820152a16024351561119d5786516001600160a01b03908116908616118015611186575b6111775760018060a01b0387511696602081015160020b6040519860a08a018a811067ffffffffffffffff821117611163576040526044358a528a60208b015260408a015260608901528160808901525b8751151580611149575b15610d7d576040518060c081011067ffffffffffffffff60c083011117610d695760c081016040528981528960208201528960408201528960608201528960808201528960a082015260018060a01b0360408a0151168152606089015160020b61040e8960020b82611f59565b908b81129081610d4f575b50610d36575b60243515610b28576104418160020b9060ff6101008360081d60010b93071690565b9190600160ff84161b5f19810111610b14578c92919061047f61046d600160ff86161b5f198101611e56565b9160010b5f52600360205260405f2090565b5416801590811594855f14610af3578181936101de578e92600160801b811015610ae5575b5068010000000000000000811015610ac5575b640100000000811015610aa5575b62010000811015610a85575b610100811015610a65575b6010811015610a45575b6004811015610a10575b600211156109f8575b509160ff61051261051c93610521969560020b95612815565b1660020b90611ee7565b612829565b905b1515604083015260020b60208201528960608a015160020b60405190633e7b777960e01b8252600482015260408160248173__$e2feb66463c19b59fc2784dd54afe811d0$__5af49081156109ed57829083926109cc575b50602084015160020b60405190633e7b777960e01b8252600482015260408160248173__$e2feb66463c19b59fc2784dd54afe811d0$__5af480156109c15784610619927f89ad7e89c9195e02b25badc1e46699259dc825f99a1dd54d472e15e4023bf992969192610990575b5060405194859485929360ff91959482606094608087019860010b875216602086015260010b604085015216910152565b0390a160208101516001600160a01b03906106369060020b611fe0565b166060820181905281516001600160a01b0316906024351561097f576001600160a01b03891681105b15610979575087905b60808b01518b516001600160801b0390911691906001600160a01b03841682108015908f906109695761069c858786612642565b831061091457505050825b6106bd6106b5848685612642565b9385846125d6565b9182916001600160a01b03161161090b575b5060a0840152608083015260018060a01b031660408a01526106f660808201518a51611e63565b895261070a60a082015160208b0151611e56565b60208a0152604089015160608201516001600160a01b03918216911681036108e6575089604082015161080b575b50602435156107ef57602081015160020b5f1901627fffff8113627fffff198212176107db57905f516020612cd45f395f51905f52915b60020b60608b01525b60018060a01b038151166107d3602083015160020b928c604082015115159160018060a01b036060820151169060a06080820151910151916001600160801b036080606086015160020b950151169460405198899889611e90565b0390a1610397565b634e487b7160e01b8b52601160045260248bfd5b8060205f516020612cd45f395f51905f5292015160020b61076f565b6001600160801b03610852600160405f516020612cd45f395f51905f5294602087015160020b81526002602052200154600f0b8c6024356108d0575b6080015183166126b7565b168060808c015260018060a01b038351166108a5602085015160020b928d604087015115159060018060a01b03606089015116608089015190606060a08b015193015160020b9360405198899889611e90565b0390a16001600160801b0360808a015116156108c15789610738565b634323a55560e01b8a5260048afd5b9060806108dd8592611e70565b92915050610847565b906108fe5f516020612cd45f395f51905f5292612840565b60020b60608b0152610778565b9190505f6106cf565b501561092b57610925908383612c46565b926106a7565b6001600160a01b039061094290849060601b611fd6565b1681016001600160a01b03811115610925575b634e487b7160e01b8e52601160045260248efd5b6109748587866125d6565b61069c565b90610668565b6001600160a01b038916811161065f565b90506109b3915060403d81116109ba575b6109ab8183611dc1565b810190611de3565b905f6105e8565b503d6109a1565b6040513d86823e3d90fd5b90506109e6915060403d81116109ba576109ab8183611dc1565b905f61057b565b6040513d84823e3d90fd5b505060ff908116600101908111610955578b8e6104f9565b600292509260ff9193831c9350160160ff8111610a3157908c908f906104f0565b634e487b7160e01b8f52601160045260248ffd5b600492509260ff9193831c9350160160ff8111610a31578e8d91926104e6565b600892509260ff9193831c9350160160ff8111610a31578e8d91926104dc565b601092509260ff9193831c9350160160ff8111610a31578e8d91926104d1565b602092509260ff9193831c9350160160ff8111610a31578e8d91926104c5565b604092509260ff9193831c9350160160ff8111610a31578e8d91926104b7565b60809450841c90505f6104a4565b5050509061051c610b0f9260ff8d60020b931660020b90611ee7565b610521565b634e487b7160e01b8d52601160045260248dfd5b610b4a610b34826127dc565b60020b9060ff6101008360081d60010b93071690565b90600160ff83161b805f1981011161095557610b76905f1901199160010b5f52600360205260405f2090565b5416908115908d821594855f14610cfa57610b90906127dc565b9380936101de5760ff906001600160801b03811615610cef575050508d607f905b67ffffffffffffffff841615610ce5575060ff603f1991160160ff8111610a31578e5b63ffffffff841615610cdb575060ff601f1991160160ff8111610a31578e5b61ffff841615610cd1575060ff600f1991160160ff8111610a31578e5b60ff841615610cc7575060ff60071991160160ff8111610a31578e5b600f841615610cbd575060ff60031991160160ff8111610a31578e5b8d6003851615610caf57505060ff60011991160160ff8111610a315760018d91935b16610c97575b9260ff610c8761051c93610c919660020b95612815565b1660020b906127f7565b90610523565b509060ff5f1991160160ff811161095557908b610c70565b91936001915060021c610c6a565b9260041c92610c48565b9260081c92610c2c565b9260101c92610c10565b9260201c92610bf3565b9260401c92610bd4565b60801c935090610bb1565b91935050610d0891506127dc565b60ff808316810311610b14579061051c610d319260ff808e60020b941681031660020b906127f7565b610c91565b627fffff198160020b146107db5760020b5f190161041f565b610d5e91508a60020b90611f33565b60020b15155f610419565b634e487b7160e01b8a52604160045260248afd5b8896508795506020606087015191015160020b8160020b03611111575b506001600160801b036080860151168091036110fa575b50602435156110da57610dd46020610dcc8651604435611e63565b950151611f04565b925b60243515610fa45785610de885611f04565b7f00000000000000000000000000000000000000000000000000000000000000006001600160a01b03163b156101de5760405163a9059cbb60e01b81526001600160a01b03861660048201526024810191909152818180604481010381837f00000000000000000000000000000000000000000000000000000000000000006001600160a01b03165af180156109ed57610f8b575b50610e866126ff565b92333b156101de5760405163fa461e3360e01b815292829184918291610eb291908a8c60048601611f14565b038183335af1918215610f7e578692610f61575b5050610ed191611e56565b610ed96126ff565b10610f52576040935b546001548551858152602081018590526001600160a01b03808416828901526001600160801b03909216606082015260a092831c60020b608082015292169133917fc42079f94a6350d7e6235f29174924f928cc2ac818eb64fed8004e115fbcca6791a382519182526020820152f35b63098fb56160e01b8452600484fd5b81925090610f6e91611dc1565b610f7a57838587610ec6565b8480fd5b50604051903d90823e3d90fd5b81610f9591611dc1565b610fa0578587610e7d565b8580fd5b85610fae86611f04565b7f00000000000000000000000000000000000000000000000000000000000000006001600160a01b03163b156101de5760405163a9059cbb60e01b81526001600160a01b03861660048201526024810191909152818180604481010381837f00000000000000000000000000000000000000000000000000000000000000006001600160a01b03165af180156109ed576110c5575b5061104c612785565b92333b156101de5760405163fa461e3360e01b81529282918491829161107891908a8c60048601611f14565b038183335af1918215610f7e5785926110ac575b505061109791611e56565b61109f612785565b10610f5257604093610ee2565b819250906110b991611dc1565b610f7a5782858761108c565b816110cf91611dc1565b610fa0578587611043565b6110f46110ea6020860151611f04565b9451604435611e63565b92610dd6565b6001600160801b0319600154161760015585610db1565b604086015187546001600160b81b03191660a09290921b62ffffff60a01b16919091176001600160a01b039190911617865586610d9a565b5060408801516001600160a01b03878116911614156103a1565b634e487b7160e01b8c52604160045260248cfd5b632d4eeeb360e21b8852600488fd5b506401000276a36001600160a01b03861610610346565b86516001600160a01b039081169086161080610346575073fffd8963efd1fc6a506488495d951d5263988d266001600160a01b03861611610346565b8380fd5b8280fd5b503461017f578060031936011261017f576040517f00000000000000000000000000000000000000000000000000000000000000006001600160a01b03168152602090f35b503461017f578060031936011261017f57602060405162ffffff7f0000000000000000000000000000000000000000000000000000000000000000168152f35b503461017f578060031936011261017f576040517f00000000000000000000000000000000000000000000000000000000000000006001600160a01b03168152602090f35b503461017f57602036600319011261017f576004358060010b8091036101de578160409160209352600383522054604051908152f35b503461017f57602036600319011261017f576001600160801b036040602092600435815260048452205416604051908152f35b503461017f57606036600319011261017f5760043560243560443567ffffffffffffffff81116111d95761134c903690600401611d63565b90846113566126ff565b9161135f612785565b938661150c575b85611489575b333b156111dd576040516372642be560e11b8152602060048201529183918391829161139d91602484019190611e36565b038183335af180156109ed57611474575b50506113b86126ff565b10611439576113c5612785565b106113fe5760405191825260208201527f1c1db1f1d6a01e51fec24bb54087b65fe5430f692280e70d92f718eb72ae76b760403392a280f35b60405162461bcd60e51b81526020600482015260136024820152724e6f742072657475726e656420746f6b656e3160681b6044820152606490fd5b60405162461bcd60e51b815260206004820152601360248201527204e6f742072657475726e656420746f6b656e3606c1b6044820152606490fd5b8161147e91611dc1565b610f7a57845f6113ae565b7f00000000000000000000000000000000000000000000000000000000000000006001600160a01b0316803b156111d95760405163a9059cbb60e01b8152336004820152602481018890529084908290604490829084905af19081156109c15784916114f7575b505061136c565b8161150191611dc1565b6111dd57825f6114f0565b7f00000000000000000000000000000000000000000000000000000000000000006001600160a01b0316803b156111d95760405163a9059cbb60e01b8152336004820152602481018990529084908290604490829084905af19081156109c157849161157a575b5050611366565b8161158491611dc1565b6111dd57825f611573565b5034611a1d5760a0366003190112611a1d576115a9611d4d565b90602435908160020b90818303611a1d57604435918260020b91828403611a1d57606435906001600160801b03821691828103611a1d5760843567ffffffffffffffff8111611a1d57611600903690600401611d63565b969097868612801590611ca6575b8015611c9a575b611c8c578415611c7d5784600f0b865f52600260205260405f2060018154916001600160801b038360081c1661164b85826126b7565b9015936001600160801b0382161585141594611c6f575b50610100600160881b0382549160081b1690610100600160881b031916178155018054600f0b838101905f8583129112908015821691151617611c4d576001600160801b0319825416906001600160801b0316179055885f52600260205260405f209060018254926001600160801b038460081c166116e186826126b7565b9015946001600160801b0382161586141595611c61575b50815470ffffffffffffffffffffffffffffffff00191660089190911b610100600160881b0316178155018054600f0b848103905f86128015828413169183121617611c4d576001600160801b0319825416906001600160801b0316179055611c16575b611bdf575b73__$e2feb66463c19b59fc2784dd54afe811d0$__604051633e7b777960e01b8152886004820152604081602481855af4908115611a12575f905f92611bbd575b5060408b6024825180968193633e7b777960e01b835260048301525af4928315611a12577f89ad7e89c9195e02b25badc1e46699259dc825f99a1dd54d472e15e4023bf99293611825915f905f92611ba2575060405194859485929360ff91959482606094608087019860010b875216602086015260010b604085015216910152565b0390a160405160208101906bffffffffffffffffffffffff198d60601b1682528360e81b60348201528460e81b6037820152601a8152611866603a82611dc1565b5190205f52600460205260405f206001600160801b036118898682845416611fb6565b166001600160801b03198254161790556118a1611e0e565b602081015160020b88811215611a3f57505050906118cb6118c56118d19493611fe0565b91611fe0565b90612642565b955f955b5f5f918915159182611a31575b8915159485611a21575b333b15611a1d578a8c6119275f93604051968794859463d348799760e01b865260048601526024850152606060448501526064840191611e36565b038183335af1918215611a12578b926119fb575b50826119e1575b50506119d2578690826119b8575b50506119a957507f7a53080ba414158be7ec69b987b5fb7d07dee101fe85488f0853ae16239d0bde60806040978851933385526020850152878985015286606085015260018060a01b031692a482519182526020820152f35b63098fb56160e01b8152600490fd5b6119c29250611e56565b6119ca612785565b10855f611950565b63098fb56160e01b8352600483fd5b6119eb9250611e56565b6119f36126ff565b10885f611942565b5f919650611a099250611dc1565b885f945f61193b565b6040513d5f823e3d90fd5b5f80fd5b9350611a2b612785565b936118ec565b50611a3a6126ff565b6118e2565b89909b959192939a949b125f14611b805781516001600160a01b031681611a658d611fe0565b611a6e92612642565b8251909b8c916001600160a01b031690611a8790611fe0565b604080516001600160a01b039384168152919092166020820152908101919091527f4b3b292ea1091265989522551d91db2cb3e6b1ab4f72a9b7ec8a301adda7247c90606090a181516001600160a01b031690611ae38b611fe0565b611aec926125d6565b9051909889916001600160a01b031690611b0590611fe0565b604080516001600160a01b039384168152919092166020820152908101919091527f4b3b292ea1091265989522551d91db2cb3e6b1ab4f72a9b7ec8a301adda7247c90606090a160015490611b63906001600160801b0383166126b7565b6001600160801b0316906001600160801b031916176001556118d5565b915050611b9c919798611b966118c55f9b611fe0565b906125d6565b956118d5565b90506109b3915060403d6040116109ba576109ab8183611dc1565b9050611bd8915060403d6040116109ba576109ab8183611dc1565b905f6117a2565b611c1162ffffff7f00000000000000000000000000000000000000000000000000000000000000001660020b84611f7b565b611761565b611c4862ffffff7f00000000000000000000000000000000000000000000000000000000000000001660020b84611f7b565b61175c565b634e487b7160e01b5f52601160045260245ffd5b60ff1916831782555f6116f8565b60ff1916831782555f611662565b630200e8a960e31b5f5260045ffd5b6264847d60e41b5f5260045ffd5b50620d89e88713611615565b50620d89e719861261160e565b34611a1d575f366003190112611a1d575f54604080516001600160a01b038316815260a09290921c60020b602083015290f35b34611a1d575f366003190112611a1d5760206001600160801b0360015416604051908152f35b34611a1d575f366003190112611a1d577f00000000000000000000000000000000000000000000000000000000000000006001600160a01b03168152602090f35b600435906001600160a01b0382168203611a1d57565b9181601f84011215611a1d5782359167ffffffffffffffff8311611a1d5760208381860195010111611a1d57565b6040810190811067ffffffffffffffff821117611dad57604052565b634e487b7160e01b5f52604160045260245ffd5b90601f8019910116810190811067ffffffffffffffff821117611dad57604052565b9190826040910312611a1d5781518060010b8103611a1d5760209092015160ff81168103611a1d5790565b60405190611e1b82611d91565b5f546001600160a01b038116835260a01c60020b6020830152565b908060209392818452848401375f828201840152601f01601f1916010190565b91908201809211611c4d57565b91908203918211611c4d57565b600f0b6f7fffffffffffffffffffffffffffffff198114611c4d575f0390565b6001600160a01b039182168152600292830b602082015292151560408401529092166060820152608081019290925260a082019290925291900b60c08201526001600160801b039190911660e08201526101000190565b600291820b910b0390627fffff198212627fffff831317611c4d57565b600160ff1b8114611c4d575f0390565b611f309492606092825260208201528160408201520191611e36565b90565b9060020b908115611f455760020b0790565b634e487b7160e01b5f52601260045260245ffd5b60020b9060020b908115611f4557627fffff1981145f19831416611c4d570590565b611f858282611f33565b60020b611a1d57611f9991610b3491611f59565b9060010b5f526003602052600160ff60405f2092161b8154189055565b906001600160801b03809116911601906001600160801b038211611c4d57565b8115611f45570490565b60020b5f8112156125b757611ff481611f04565b905b620d89e8821161258e57600182161561257c576001600160881b036ffffcb933bd6fad37aa2d162d1a5940015b169160028116612541575b60048116612506575b600881166124cb575b60108116612490575b60208116612455575b6040811661241a575b608081166123df575b61010081166123a4575b6102008116612369575b610400811661232e575b61080081166122f3575b61100081166122b8575b612000811661227d575b6140008116612242575b6180008116612207575b6201000081166121cc575b620200008116612193575b62040000811661215c575b6208000016612129575b5f1261211b575b63ffffffff81166121105761210c5f915b6001600160a01b039260ff169060201c611e56565b1690565b61210c6001916120f7565b8015611f45575f19046120e6565b906b048a170391f7dc42444e8fa28102908082046b048a170391f7dc42444e8fa21490151715611c4d5760801c906120df565b916d2216e584f5fa1ea926041bedfe988102908082046d2216e584f5fa1ea926041bedfe981490151715611c4d5760801c916120d5565b916e5d6af8dedb81196699c329225ee6048102908082046e5d6af8dedb81196699c329225ee6041490151715611c4d5760801c916120ca565b916f09aa508b5b7a84e1c677de54f3e99bc98102908082046f09aa508b5b7a84e1c677de54f3e99bc91490151715611c4d5760801c916120bf565b916f31be135f97d08fd981231505542fcfa68102908082046f31be135f97d08fd981231505542fcfa61490151715611c4d5760801c916120b4565b916f70d869a156d2a1b890bb3df62baf32f78102908082046f70d869a156d2a1b890bb3df62baf32f71490151715611c4d5760801c916120aa565b916fa9f746462d870fdf8a65dc1f90e061e58102908082046fa9f746462d870fdf8a65dc1f90e061e51490151715611c4d5760801c916120a0565b916fd097f3bdfd2022b8845ad8f792aa58258102908082046fd097f3bdfd2022b8845ad8f792aa58251490151715611c4d5760801c91612096565b916fe7159475a2c29b7443b29c7fa6e889d98102908082046fe7159475a2c29b7443b29c7fa6e889d91490151715611c4d5760801c9161208c565b916ff3392b0822b70005940c7a398e4b70f38102908082046ff3392b0822b70005940c7a398e4b70f31490151715611c4d5760801c91612082565b916ff987a7253ac413176f2b074cf7815e548102908082046ff987a7253ac413176f2b074cf7815e541490151715611c4d5760801c91612078565b916ffcbe86c7900a88aedcffc83b479aa3a48102908082046ffcbe86c7900a88aedcffc83b479aa3a41490151715611c4d5760801c9161206e565b916ffe5dee046a99a2a811c461f1969c30538102908082046ffe5dee046a99a2a811c461f1969c30531490151715611c4d5760801c91612064565b916fff2ea16466c96a3843ec78b326b528618102908082046fff2ea16466c96a3843ec78b326b528611490151715611c4d5760801c9161205b565b916fff973b41fa98c081472e6896dfb254c08102908082046fff973b41fa98c081472e6896dfb254c01490151715611c4d5760801c91612052565b916fffcb9843d60f6159c9db58835c9266448102908082046fffcb9843d60f6159c9db58835c9266441490151715611c4d5760801c91612049565b916fffe5caca7e10e4e61c3624eaa0941cd08102908082046fffe5caca7e10e4e61c3624eaa0941cd01490151715611c4d5760801c91612040565b916ffff2e50f5f656932ef12357cf3c7fdcc8102908082046ffff2e50f5f656932ef12357cf3c7fdcc1490151715611c4d5760801c91612037565b916ffff97272373d413259a46990580e213a8102908082046ffff97272373d413259a46990580e213a1490151715611c4d5760801c9161202e565b6001600160881b03600160801b612023565b60405162461bcd60e51b81526020600482015260016024820152601560fa1b6044820152606490fd5b80611ff6565b6001600160a01b039182169082160391908211611c4d57565b6001600160801b03916125fc91906001600160a01b038082169083161161263c576125bd565b6001600160a01b03169116612616600160601b8383612ba7565b91600160601b91096126255790565b5f19811015611a1d575f198114611c4d5760010190565b906125bd565b90916001600160a01b03808416908316116126af575b6001600160a01b038216928315611a1d576126a3926001600160a01b039061268090836125bd565b6001600160a01b039092169291169060601b600160601b600160e01b0316612b73565b90808206151591040190565b909190612658565b905f81600f0b125f146126eb576001600160801b036126d68192611e70565b169116036001600160801b038111611c4d5790565b90611f30916001600160801b031690611fb6565b6040516370a0823160e01b81523060048201526020816024815f7f00000000000000000000000000000000000000000000000000000000000000006001600160a01b03165af1908115611a12575f91612756575090565b90506020813d60201161277d575b8161277160209383611dc1565b81010312611a1d575190565b3d9150612764565b6040516370a0823160e01b81523060048201526020816024815f7f00000000000000000000000000000000000000000000000000000000000000006001600160a01b03165af1908115611a12575f91612756575090565b60020b60010190627fffff8213627fffff19831217611c4d57565b9060020b9060020b0190627fffff198212627fffff831317611c4d57565b9060ff8091169116039060ff8211611c4d57565b9060020b9060020b02908160020b918203611c4d57565b6001600160a01b038116906401000276a382101580612b56575b15612b2d57640100000000600160c01b039060201b16806001600160801b03811160071b90811c67ffffffffffffffff811160061b90811c63ffffffff811160051b90811c61ffff811160041b90811c9060ff821160031b91821c92600f841160021b93841c94600160038711811b96871c1196171717171717179060808210155f14612b1b57607e198201828111611c4d571c5b607f198201918213600116611c4d57800280607f1c8160ff1c1c800280607f1c8160ff1c1c800280607f1c8160ff1c1c800280607f1c8160ff1c1c800280607f1c8160ff1c1c800280607f1c8160ff1c1c80029081607f1c8260ff1c1c80029283607f1c8460ff1c1c80029485607f1c8660ff1c1c80029687607f1c8860ff1c1c80029889607f1c8a60ff1c1c80029a8b607f1c8c60ff1c1c80029c8d80607f1c9060ff1c1c800260cd1c6604000000000000169d60cc1c6608000000000000169c60cb1c6610000000000000169b60ca1c6620000000000000169a60c91c6640000000000000169960c81c6680000000000000169860c71c670100000000000000169760c61c670200000000000000169660c51c670400000000000000169560c41c670800000000000000169460c31c671000000000000000169360c21c672000000000000000169260c11c674000000000000000169160c01c678000000000000000169060401b1717171717171717171717171717693627a301d71055774c85810290808205693627a301d71055774c851490151715611c4d576f028f6481ab7f045a5af012a19d003aa9198101600182821316611c4d5760801d60020b906fdb2df09e81959a81455e260799a0632f8101905f6fdb2df09e81959a81455e260799a0632f83129112908015821691151617611c4d5760801d60020b91818303612afb5750905090565b6001600160a01b03612b0c84611fe0565b1611612b16575090565b905090565b81607f03607f8111611c4d571b6128ef565b60405162461bcd60e51b81526020600482015260016024820152602960f91b6044820152606490fd5b5073fffd8963efd1fc6a506488495d951d5263988d26821061285a565b929190612b81828286612ba7565b938215611f455709612b8f57565b905f19811015611a1d575f198114611c4d5760010190565b90915f198383099280830292838086109503948086039514612c395782851015612c225790829109600182190182168092046002816003021880820260020302808202600203028082026002030280820260020302808202600203028091026002030293600183805f03040190848311900302920304170290565b8285631dcf306360e21b5f5260045260245260445ffd5b505090611f309250611fd6565b60609190911b600160601b600160e01b0316916001600160a01b0390911690818102811582820484141715611c4d5782612c808383611fd6565b14612cad575b50612c94612c999284611fd6565b611e56565b80820491061515016001600160a01b031690565b612cb79084611e56565b838110612c86576001600160a01b039361210c93919250612b7356fee1d9e0a6e3b8259d30aaa9d6c731c4b8596e3ffed7c174ec05844e5d226c8ceba2646970667358221220702d5d4b9e30cbd2da5b41d74145ab50aca4fb53e3bf81ad4aaa7a217ce014fe64736f6c634300081d0033a2646970667358221220e20ebb04a2a406d581021fc3d7277ff43c16138546f92f7ce2e88e6d0d402caa64736f6c634300081d0033","linkReferences":{"src/lib/TickBitmap.sol":{"TickBitmap":[{"start":9412,"length":20},{"start":9485,"length":20},{"start":14033,"length":20}]}}},"methodIdentifiers":{"factory()":"c45a0155","mint((address,address,uint24,int24,int24,uint256,uint256,uint256,uint256))":"aa88a96c","mint_old(address,int24,int24,uint128,bytes)":"6d315328","swap((bytes,address,uint256,uint256))":"cf8c2a38","swapSingle((address,address,uint24,uint256,uint160))":"049bbb12","swap_old(address,bool,uint256,uint160,bytes)":"29f9443c","uniswapV3MintCallback(uint256,uint256,bytes)":"d3487997","uniswapV3SwapCallback(int256,int256,bytes)":"fa461e33"},"storageLayout":{"storage":[],"types":{}},"id":25}