{"abi":[{"type":"constructor","inputs":[{"name":"factory_","type":"address","internalType":"address"}],"stateMutability":"nonpayable"},{"type":"function","name":"factory","inputs":[],"outputs":[{"name":"","type":"address","internalType":"address"}],"stateMutability":"view"},{"type":"function","name":"quote","inputs":[{"name":"path","type":"bytes","internalType":"bytes"},{"name":"amountIn","type":"uint256","internalType":"uint256"}],"outputs":[{"name":"amountOut","type":"uint256","internalType":"uint256"},{"name":"sqrtPriceX96AfterList","type":"uint160[]","internalType":"uint160[]"},{"name":"tickAfterList","type":"int24[]","internalType":"int24[]"}],"stateMutability":"nonpayable"},{"type":"function","name":"quoteSingle","inputs":[{"name":"params","type":"tuple","internalType":"struct UniswapV3Quoter.QuoteSingleParams","components":[{"name":"tokenIn","type":"address","internalType":"address"},{"name":"tokenOut","type":"address","internalType":"address"},{"name":"tickSpacing","type":"uint24","internalType":"uint24"},{"name":"amountIn","type":"uint256","internalType":"uint256"},{"name":"sqrtPriceLimitX96","type":"uint160","internalType":"uint160"}]}],"outputs":[{"name":"amountOut","type":"uint256","internalType":"uint256"},{"name":"sqrtPriceX96After","type":"uint160","internalType":"uint160"},{"name":"tickAfter","type":"int24","internalType":"int24"}],"stateMutability":"nonpayable"},{"type":"function","name":"uniswapV3SwapCallback","inputs":[{"name":"amount0","type":"int256","internalType":"int256"},{"name":"amount1","type":"int256","internalType":"int256"},{"name":"data","type":"bytes","internalType":"bytes"}],"outputs":[],"stateMutability":"nonpayable"},{"type":"event","name":"QuoteEvent","inputs":[{"name":"","type":"uint256","indexed":false,"internalType":"uint256"},{"name":"","type":"uint160","indexed":false,"internalType":"uint160"},{"name":"","type":"int24","indexed":false,"internalType":"int24"}],"anonymous":false},{"type":"error","name":"QuoteError","inputs":[{"name":"","type":"uint256","internalType":"uint256"},{"name":"","type":"uint160","internalType":"uint160"},{"name":"","type":"int24","internalType":"int24"}]}],"bytecode":{"object":"0x60a034606d57601f613b4938819003918201601f19168301916001600160401b03831184841017607157808492602094604052833981010312606d57516001600160a01b0381168103606d57608052604051613ac3908161008682396080518181816102bf0152610acf0152f35b5f80fd5b634e487b7160e01b5f52604160045260245ffdfe60806040526004361015610011575f80fd5b5f3560e01c806333224ae114610054578063402358a51461004f578063c45a01551461004a5763fa461e3314610045575f80fd5b6102ee565b6102aa565b61020c565b346100e05760403660031901126100e05760043567ffffffffffffffff81116100e057366023820112156100e0578060040135906100918261015a565b61009e6040519182610119565b82815236602484840101116100e0575f6020846100dc9560246100cd96018386013783010152602435906103e5565b60409391935193849384610176565b0390f35b5f80fd5b634e487b7160e01b5f52604160045260245ffd5b60a0810190811067ffffffffffffffff82111761011457604052565b6100e4565b90601f8019910116810190811067ffffffffffffffff82111761011457604052565b6040519061014a60a083610119565b565b9061014a6040519283610119565b67ffffffffffffffff811161011457601f01601f191660200190565b90606082019082526060602083015282518091526020608083019301905f5b8181106101dc575050506040818303910152602080835192838152019201905f5b8181106101c35750505090565b825160020b8452602093840193909201916001016101b6565b82516001600160a01b0316855260209485019490920191600101610195565b6001600160a01b038116036100e057565b346100e05760a03660031901126100e057604051610229816100f8565b600435610235816101fb565b8152602435610243816101fb565b602082015260443562ffffff811681036100e05760408201526100dc90610282906064356060820152608435610278816101fb565b6080820152610600565b604080519384526001600160a01b03909216602084015260020b908201529081906060820190565b346100e0575f3660031901126100e0576040517f00000000000000000000000000000000000000000000000000000000000000006001600160a01b03168152602090f35b346100e05760603660031901126100e05760443560043560243567ffffffffffffffff83116100e057366023840112156100e05782600401359267ffffffffffffffff84116100e05736602485830101116100e0576024019161079f565b67ffffffffffffffff81116101145760051b60200190565b9061036e8261034c565b61037b6040519182610119565b828152809261038c601f199161034c565b0190602036910137565b80518210156103aa5760209160051b010190565b634e487b7160e01b5f52603260045260245ffd5b634e487b7160e01b5f52601160045260245ffd5b5f1981146103e05760010190565b6103be565b906103ef826108b5565b916103f98361034c565b926104076040519485610119565b808452610416601f199161034c565b013660208501376104b1839261043361042e846108b5565b610364565b926104c36104956104795f945b61048561044c866108c9565b91949061046961045a61013b565b6001600160a01b039097168752565b6001600160a01b03166020860152565b62ffffff166040840152565b60608201525f6080820152610600565b9195906104a2868b610396565b6001600160a01b039091169052565b6104bb8487610396565b9060020b9052565b6104cd83926103d2565b926104db8260429051101590565b1561051757506104c36104a26104b161044c986104956104796104cd976104856105058b99610970565b9d5050929b9650929796509250610440565b9394955050505092565b91908260409103126100e0576020825192015190565b93909260c0959260209460018060a01b03168652151584860152604085015260018060a01b0316606084015260a0608084015280519182918260a0860152018484015e5f828201840152601f01601f1916010190565b6040513d5f823e3d90fd5b3d156105c2573d906105a98261015a565b916105b76040519384610119565b82523d5f602084013e565b606090565b51908160020b82036100e057565b908160609103126100e0578051916105fd604060208401516105f6816101fb565b93016105c7565b90565b80515f9182918291906040906001600160a01b031660208301805190939161063a916001600160a01b03168385015162ffffff1691610a0d565b8151935190936001600160a01b039081169161065e91165b6001600160a01b031690565b60608301516080909301516001600160a01b03928316919091109482169116806107585750831561073e576401000276a45b915b83516001600160a01b0383166020808301919091528152945f906106b7604088610119565b6106d7865197889687958694631bab425b60e31b86523060048701610537565b03925af19081610710575b5061070b575050506107046106f5610598565b602080825183010191016105d5565b9192909190565b909192565b6107319060403d604011610737575b6107298183610119565b810190610521565b506106e2565b503d61071f565b73fffd8963efd1fc6a506488495d951d5263988d25610690565b91610692565b908160209103126100e057356105fd816101fb565b600160ff1b81146103e0575f0390565b91908260409103126100e0576105fd602083516105f6816101fb565b91906107b561065260409360049681019061075e565b925f81131561088a57506107c890610773565b915b8151633850c7bd60e01b815293849182906001600160a01b03165afa8015610885576060925f905f92610853575b50604080518481526001600160a01b0383166020820152600284900b918101919091527fb2d62c7177748cab12239fe6491533ef77c50498a7039031b5f63897771541f890606090a160405192835260208301526040820152fd5b9050610877915060403d60401161087e575b61086f8183610119565b810190610783565b905f6107f8565b503d610865565b61058d565b6108949150610773565b916107ca565b90601f82018092116103e057565b919082018092116103e057565b5160131981019081116103e0576017900490565b90601482511061093357602082015160601c9160178151106108f7576108f460178083015192610b42565b91565b60405162461bcd60e51b8152602060048201526014602482015273746f55696e7432345f6f75744f66426f756e647360601b6044820152606490fd5b60405162461bcd60e51b8152602060048201526015602482015274746f416464726573735f6f75744f66426f756e647360581b6044820152606490fd5b80519060178203918083116103e0576017906109968461098f8161089a565b1015610b61565b6109ac83516109a586856108a8565b1115610b9e565b036109c35750506040515f81526020810160405290565b60405191601f8116916017831560051b80858701019484860193010101905b8084106109fa5750508252601f01601f191660405290565b90926020809185518152019301906109e2565b9091906001600160a01b038084169082161015610b3c5791905b6001600160a01b0382811690841610156100e057604051606093841b6bffffffffffffffffffffffff19908116602083019081529390941b909316603484015260e81b6001600160e81b0319166048830152602b82526105fd91610652918291610a92604b82610119565b519020610b1f610b2d612eaf610aaa6020820161014c565b8181526020810191610bdf83395190206040516001600160f81b0319602082019081527f000000000000000000000000000000000000000000000000000000000000000060601b6bffffffffffffffffffffffff19166021830152603582019590955260558101919091529182906075820190565b03601f198101835282610119565b5190206001600160a01b031690565b90610a27565b90815160148201908183116103e0571061093357016020015160601c90565b15610b6857565b60405162461bcd60e51b815260206004820152600e60248201526d736c6963655f6f766572666c6f7760901b6044820152606490fd5b15610ba557565b60405162461bcd60e51b8152602060048201526011602482015270736c6963655f6f75744f66426f756e647360781b6044820152606490fdfe610100806040523461014757630890357360e41b81526080816004815f335af18015610166575f915f915f915f916100cd575b5060e05260c05260a052608052604051612d29908161018682396080518161127c015260a05181818161029801528181610fb00152818161100e0152818161150e01528181611d1e015261271b015260c0518181816102c301528181610dea01528181610e48015281816111f70152818161148b01526127a1015260e0518181816102ee0152818161124201528181611be80152611c1f0152f35b935050505060803d60801161015f575b601f8101601f191682016001600160401b0381118382101761014b576080918391604052810103126101475761011281610171565b9061011f60208201610171565b91606061012e60408401610171565b9201519062ffffff82168203610147579291905f610032565b5f80fd5b634e487b7160e01b5f52604160045260245ffd5b503d6100dd565b6040513d5f823e3d90fd5b51906001600160a01b03821682036101475756fe6080806040526004361015610012575f80fd5b5f905f3560e01c9081630dfe168114611d0c575080631a68650214611ce65780633850c7bd14611cb35780633c8a7d8d1461158f5780634a18239214611314578063514ea4bf146112e15780635339c296146112ab578063c45a015514611266578063d0c93a7c14611226578063d21220a7146111e1578063dd5a12d8146101e2578063f30dba93146101825763f637731d146100ad575f80fd5b3461017f57602036600319011261017f576100c6611d4d565b6001600160a01b038116906401000276a382108015610162575b6101535782546001600160a01b0316610145576100fc90612840565b9060405161010981611d91565b818152600283900b602090910152825460a09290921b62ffffff60a01b166001600160b81b031990921662ffffff60a01b199091161717815580f35b62dc149f60e41b8352600483fd5b632d4eeeb360e21b8352600483fd5b5073fffd8963efd1fc6a506488495d951d5263988d2682116100e0565b80fd5b503461017f57602036600319011261017f576004358060020b8091036101de57816040916060935260026020522060018154910154600f0b6001600160801b036040519260ff81161515845260081c1660208301526040820152f35b5080fd5b503461017f5760a036600319011261017f576101fc611d4d565b6024351515602435036101de576064356001600160a01b03811681036111dd5760843567ffffffffffffffff81116111d95761023c903690600401611d63565b610247929192611e0e565b936001600160801b03600154169360018060a01b03865116947f569a9652a523395272195d6307888d77fc4d96dde5519d31be0ce7b96e792b5260c0602089015160020b6040519060018060a01b037f000000000000000000000000000000000000000000000000000000000000000016825260018060a01b037f000000000000000000000000000000000000000000000000000000000000000016602083015262ffffff7f000000000000000000000000000000000000000000000000000000000000000016998a6040840152606083015260808201528360a0820152a16024351561119d5786516001600160a01b03908116908616118015611186575b6111775760018060a01b0387511696602081015160020b6040519860a08a018a811067ffffffffffffffff821117611163576040526044358a528a60208b015260408a015260608901528160808901525b8751151580611149575b15610d7d576040518060c081011067ffffffffffffffff60c083011117610d695760c081016040528981528960208201528960408201528960608201528960808201528960a082015260018060a01b0360408a0151168152606089015160020b61040e8960020b82611f59565b908b81129081610d4f575b50610d36575b60243515610b28576104418160020b9060ff6101008360081d60010b93071690565b9190600160ff84161b5f19810111610b14578c92919061047f61046d600160ff86161b5f198101611e56565b9160010b5f52600360205260405f2090565b5416801590811594855f14610af3578181936101de578e92600160801b811015610ae5575b5068010000000000000000811015610ac5575b640100000000811015610aa5575b62010000811015610a85575b610100811015610a65575b6010811015610a45575b6004811015610a10575b600211156109f8575b509160ff61051261051c93610521969560020b95612815565b1660020b90611ee7565b612829565b905b1515604083015260020b60208201528960608a015160020b60405190633e7b777960e01b8252600482015260408160248173__$e2feb66463c19b59fc2784dd54afe811d0$__5af49081156109ed57829083926109cc575b50602084015160020b60405190633e7b777960e01b8252600482015260408160248173__$e2feb66463c19b59fc2784dd54afe811d0$__5af480156109c15784610619927f89ad7e89c9195e02b25badc1e46699259dc825f99a1dd54d472e15e4023bf992969192610990575b5060405194859485929360ff91959482606094608087019860010b875216602086015260010b604085015216910152565b0390a160208101516001600160a01b03906106369060020b611fe0565b166060820181905281516001600160a01b0316906024351561097f576001600160a01b03891681105b15610979575087905b60808b01518b516001600160801b0390911691906001600160a01b03841682108015908f906109695761069c858786612642565b831061091457505050825b6106bd6106b5848685612642565b9385846125d6565b9182916001600160a01b03161161090b575b5060a0840152608083015260018060a01b031660408a01526106f660808201518a51611e63565b895261070a60a082015160208b0151611e56565b60208a0152604089015160608201516001600160a01b03918216911681036108e6575089604082015161080b575b50602435156107ef57602081015160020b5f1901627fffff8113627fffff198212176107db57905f516020612cd45f395f51905f52915b60020b60608b01525b60018060a01b038151166107d3602083015160020b928c604082015115159160018060a01b036060820151169060a06080820151910151916001600160801b036080606086015160020b950151169460405198899889611e90565b0390a1610397565b634e487b7160e01b8b52601160045260248bfd5b8060205f516020612cd45f395f51905f5292015160020b61076f565b6001600160801b03610852600160405f516020612cd45f395f51905f5294602087015160020b81526002602052200154600f0b8c6024356108d0575b6080015183166126b7565b168060808c015260018060a01b038351166108a5602085015160020b928d604087015115159060018060a01b03606089015116608089015190606060a08b015193015160020b9360405198899889611e90565b0390a16001600160801b0360808a015116156108c15789610738565b634323a55560e01b8a5260048afd5b9060806108dd8592611e70565b92915050610847565b906108fe5f516020612cd45f395f51905f5292612840565b60020b60608b0152610778565b9190505f6106cf565b501561092b57610925908383612c46565b926106a7565b6001600160a01b039061094290849060601b611fd6565b1681016001600160a01b03811115610925575b634e487b7160e01b8e52601160045260248efd5b6109748587866125d6565b61069c565b90610668565b6001600160a01b038916811161065f565b90506109b3915060403d81116109ba575b6109ab8183611dc1565b810190611de3565b905f6105e8565b503d6109a1565b6040513d86823e3d90fd5b90506109e6915060403d81116109ba576109ab8183611dc1565b905f61057b565b6040513d84823e3d90fd5b505060ff908116600101908111610955578b8e6104f9565b600292509260ff9193831c9350160160ff8111610a3157908c908f906104f0565b634e487b7160e01b8f52601160045260248ffd5b600492509260ff9193831c9350160160ff8111610a31578e8d91926104e6565b600892509260ff9193831c9350160160ff8111610a31578e8d91926104dc565b601092509260ff9193831c9350160160ff8111610a31578e8d91926104d1565b602092509260ff9193831c9350160160ff8111610a31578e8d91926104c5565b604092509260ff9193831c9350160160ff8111610a31578e8d91926104b7565b60809450841c90505f6104a4565b5050509061051c610b0f9260ff8d60020b931660020b90611ee7565b610521565b634e487b7160e01b8d52601160045260248dfd5b610b4a610b34826127dc565b60020b9060ff6101008360081d60010b93071690565b90600160ff83161b805f1981011161095557610b76905f1901199160010b5f52600360205260405f2090565b5416908115908d821594855f14610cfa57610b90906127dc565b9380936101de5760ff906001600160801b03811615610cef575050508d607f905b67ffffffffffffffff841615610ce5575060ff603f1991160160ff8111610a31578e5b63ffffffff841615610cdb575060ff601f1991160160ff8111610a31578e5b61ffff841615610cd1575060ff600f1991160160ff8111610a31578e5b60ff841615610cc7575060ff60071991160160ff8111610a31578e5b600f841615610cbd575060ff60031991160160ff8111610a31578e5b8d6003851615610caf57505060ff60011991160160ff8111610a315760018d91935b16610c97575b9260ff610c8761051c93610c919660020b95612815565b1660020b906127f7565b90610523565b509060ff5f1991160160ff811161095557908b610c70565b91936001915060021c610c6a565b9260041c92610c48565b9260081c92610c2c565b9260101c92610c10565b9260201c92610bf3565b9260401c92610bd4565b60801c935090610bb1565b91935050610d0891506127dc565b60ff808316810311610b14579061051c610d319260ff808e60020b941681031660020b906127f7565b610c91565b627fffff198160020b146107db5760020b5f190161041f565b610d5e91508a60020b90611f33565b60020b15155f610419565b634e487b7160e01b8a52604160045260248afd5b8896508795506020606087015191015160020b8160020b03611111575b506001600160801b036080860151168091036110fa575b50602435156110da57610dd46020610dcc8651604435611e63565b950151611f04565b925b60243515610fa45785610de885611f04565b7f00000000000000000000000000000000000000000000000000000000000000006001600160a01b03163b156101de5760405163a9059cbb60e01b81526001600160a01b03861660048201526024810191909152818180604481010381837f00000000000000000000000000000000000000000000000000000000000000006001600160a01b03165af180156109ed57610f8b575b50610e866126ff565b92333b156101de5760405163fa461e3360e01b815292829184918291610eb291908a8c60048601611f14565b038183335af1918215610f7e578692610f61575b5050610ed191611e56565b610ed96126ff565b10610f52576040935b546001548551858152602081018590526001600160a01b03808416828901526001600160801b03909216606082015260a092831c60020b608082015292169133917fc42079f94a6350d7e6235f29174924f928cc2ac818eb64fed8004e115fbcca6791a382519182526020820152f35b63098fb56160e01b8452600484fd5b81925090610f6e91611dc1565b610f7a57838587610ec6565b8480fd5b50604051903d90823e3d90fd5b81610f9591611dc1565b610fa0578587610e7d565b8580fd5b85610fae86611f04565b7f00000000000000000000000000000000000000000000000000000000000000006001600160a01b03163b156101de5760405163a9059cbb60e01b81526001600160a01b03861660048201526024810191909152818180604481010381837f00000000000000000000000000000000000000000000000000000000000000006001600160a01b03165af180156109ed576110c5575b5061104c612785565b92333b156101de5760405163fa461e3360e01b81529282918491829161107891908a8c60048601611f14565b038183335af1918215610f7e5785926110ac575b505061109791611e56565b61109f612785565b10610f5257604093610ee2565b819250906110b991611dc1565b610f7a5782858761108c565b816110cf91611dc1565b610fa0578587611043565b6110f46110ea6020860151611f04565b9451604435611e63565b92610dd6565b6001600160801b0319600154161760015585610db1565b604086015187546001600160b81b03191660a09290921b62ffffff60a01b16919091176001600160a01b039190911617865586610d9a565b5060408801516001600160a01b03878116911614156103a1565b634e487b7160e01b8c52604160045260248cfd5b632d4eeeb360e21b8852600488fd5b506401000276a36001600160a01b03861610610346565b86516001600160a01b039081169086161080610346575073fffd8963efd1fc6a506488495d951d5263988d266001600160a01b03861611610346565b8380fd5b8280fd5b503461017f578060031936011261017f576040517f00000000000000000000000000000000000000000000000000000000000000006001600160a01b03168152602090f35b503461017f578060031936011261017f57602060405162ffffff7f0000000000000000000000000000000000000000000000000000000000000000168152f35b503461017f578060031936011261017f576040517f00000000000000000000000000000000000000000000000000000000000000006001600160a01b03168152602090f35b503461017f57602036600319011261017f576004358060010b8091036101de578160409160209352600383522054604051908152f35b503461017f57602036600319011261017f576001600160801b036040602092600435815260048452205416604051908152f35b503461017f57606036600319011261017f5760043560243560443567ffffffffffffffff81116111d95761134c903690600401611d63565b90846113566126ff565b9161135f612785565b938661150c575b85611489575b333b156111dd576040516372642be560e11b8152602060048201529183918391829161139d91602484019190611e36565b038183335af180156109ed57611474575b50506113b86126ff565b10611439576113c5612785565b106113fe5760405191825260208201527f1c1db1f1d6a01e51fec24bb54087b65fe5430f692280e70d92f718eb72ae76b760403392a280f35b60405162461bcd60e51b81526020600482015260136024820152724e6f742072657475726e656420746f6b656e3160681b6044820152606490fd5b60405162461bcd60e51b815260206004820152601360248201527204e6f742072657475726e656420746f6b656e3606c1b6044820152606490fd5b8161147e91611dc1565b610f7a57845f6113ae565b7f00000000000000000000000000000000000000000000000000000000000000006001600160a01b0316803b156111d95760405163a9059cbb60e01b8152336004820152602481018890529084908290604490829084905af19081156109c15784916114f7575b505061136c565b8161150191611dc1565b6111dd57825f6114f0565b7f00000000000000000000000000000000000000000000000000000000000000006001600160a01b0316803b156111d95760405163a9059cbb60e01b8152336004820152602481018990529084908290604490829084905af19081156109c157849161157a575b5050611366565b8161158491611dc1565b6111dd57825f611573565b5034611a1d5760a0366003190112611a1d576115a9611d4d565b90602435908160020b90818303611a1d57604435918260020b91828403611a1d57606435906001600160801b03821691828103611a1d5760843567ffffffffffffffff8111611a1d57611600903690600401611d63565b969097868612801590611ca6575b8015611c9a575b611c8c578415611c7d5784600f0b865f52600260205260405f2060018154916001600160801b038360081c1661164b85826126b7565b9015936001600160801b0382161585141594611c6f575b50610100600160881b0382549160081b1690610100600160881b031916178155018054600f0b838101905f8583129112908015821691151617611c4d576001600160801b0319825416906001600160801b0316179055885f52600260205260405f209060018254926001600160801b038460081c166116e186826126b7565b9015946001600160801b0382161586141595611c61575b50815470ffffffffffffffffffffffffffffffff00191660089190911b610100600160881b0316178155018054600f0b848103905f86128015828413169183121617611c4d576001600160801b0319825416906001600160801b0316179055611c16575b611bdf575b73__$e2feb66463c19b59fc2784dd54afe811d0$__604051633e7b777960e01b8152886004820152604081602481855af4908115611a12575f905f92611bbd575b5060408b6024825180968193633e7b777960e01b835260048301525af4928315611a12577f89ad7e89c9195e02b25badc1e46699259dc825f99a1dd54d472e15e4023bf99293611825915f905f92611ba2575060405194859485929360ff91959482606094608087019860010b875216602086015260010b604085015216910152565b0390a160405160208101906bffffffffffffffffffffffff198d60601b1682528360e81b60348201528460e81b6037820152601a8152611866603a82611dc1565b5190205f52600460205260405f206001600160801b036118898682845416611fb6565b166001600160801b03198254161790556118a1611e0e565b602081015160020b88811215611a3f57505050906118cb6118c56118d19493611fe0565b91611fe0565b90612642565b955f955b5f5f918915159182611a31575b8915159485611a21575b333b15611a1d578a8c6119275f93604051968794859463d348799760e01b865260048601526024850152606060448501526064840191611e36565b038183335af1918215611a12578b926119fb575b50826119e1575b50506119d2578690826119b8575b50506119a957507f7a53080ba414158be7ec69b987b5fb7d07dee101fe85488f0853ae16239d0bde60806040978851933385526020850152878985015286606085015260018060a01b031692a482519182526020820152f35b63098fb56160e01b8152600490fd5b6119c29250611e56565b6119ca612785565b10855f611950565b63098fb56160e01b8352600483fd5b6119eb9250611e56565b6119f36126ff565b10885f611942565b5f919650611a099250611dc1565b885f945f61193b565b6040513d5f823e3d90fd5b5f80fd5b9350611a2b612785565b936118ec565b50611a3a6126ff565b6118e2565b89909b959192939a949b125f14611b805781516001600160a01b031681611a658d611fe0565b611a6e92612642565b8251909b8c916001600160a01b031690611a8790611fe0565b604080516001600160a01b039384168152919092166020820152908101919091527f4b3b292ea1091265989522551d91db2cb3e6b1ab4f72a9b7ec8a301adda7247c90606090a181516001600160a01b031690611ae38b611fe0565b611aec926125d6565b9051909889916001600160a01b031690611b0590611fe0565b604080516001600160a01b039384168152919092166020820152908101919091527f4b3b292ea1091265989522551d91db2cb3e6b1ab4f72a9b7ec8a301adda7247c90606090a160015490611b63906001600160801b0383166126b7565b6001600160801b0316906001600160801b031916176001556118d5565b915050611b9c919798611b966118c55f9b611fe0565b906125d6565b956118d5565b90506109b3915060403d6040116109ba576109ab8183611dc1565b9050611bd8915060403d6040116109ba576109ab8183611dc1565b905f6117a2565b611c1162ffffff7f00000000000000000000000000000000000000000000000000000000000000001660020b84611f7b565b611761565b611c4862ffffff7f00000000000000000000000000000000000000000000000000000000000000001660020b84611f7b565b61175c565b634e487b7160e01b5f52601160045260245ffd5b60ff1916831782555f6116f8565b60ff1916831782555f611662565b630200e8a960e31b5f5260045ffd5b6264847d60e41b5f5260045ffd5b50620d89e88713611615565b50620d89e719861261160e565b34611a1d575f366003190112611a1d575f54604080516001600160a01b038316815260a09290921c60020b602083015290f35b34611a1d575f366003190112611a1d5760206001600160801b0360015416604051908152f35b34611a1d575f366003190112611a1d577f00000000000000000000000000000000000000000000000000000000000000006001600160a01b03168152602090f35b600435906001600160a01b0382168203611a1d57565b9181601f84011215611a1d5782359167ffffffffffffffff8311611a1d5760208381860195010111611a1d57565b6040810190811067ffffffffffffffff821117611dad57604052565b634e487b7160e01b5f52604160045260245ffd5b90601f8019910116810190811067ffffffffffffffff821117611dad57604052565b9190826040910312611a1d5781518060010b8103611a1d5760209092015160ff81168103611a1d5790565b60405190611e1b82611d91565b5f546001600160a01b038116835260a01c60020b6020830152565b908060209392818452848401375f828201840152601f01601f1916010190565b91908201809211611c4d57565b91908203918211611c4d57565b600f0b6f7fffffffffffffffffffffffffffffff198114611c4d575f0390565b6001600160a01b039182168152600292830b602082015292151560408401529092166060820152608081019290925260a082019290925291900b60c08201526001600160801b039190911660e08201526101000190565b600291820b910b0390627fffff198212627fffff831317611c4d57565b600160ff1b8114611c4d575f0390565b611f309492606092825260208201528160408201520191611e36565b90565b9060020b908115611f455760020b0790565b634e487b7160e01b5f52601260045260245ffd5b60020b9060020b908115611f4557627fffff1981145f19831416611c4d570590565b611f858282611f33565b60020b611a1d57611f9991610b3491611f59565b9060010b5f526003602052600160ff60405f2092161b8154189055565b906001600160801b03809116911601906001600160801b038211611c4d57565b8115611f45570490565b60020b5f8112156125b757611ff481611f04565b905b620d89e8821161258e57600182161561257c576001600160881b036ffffcb933bd6fad37aa2d162d1a5940015b169160028116612541575b60048116612506575b600881166124cb575b60108116612490575b60208116612455575b6040811661241a575b608081166123df575b61010081166123a4575b6102008116612369575b610400811661232e575b61080081166122f3575b61100081166122b8575b612000811661227d575b6140008116612242575b6180008116612207575b6201000081166121cc575b620200008116612193575b62040000811661215c575b6208000016612129575b5f1261211b575b63ffffffff81166121105761210c5f915b6001600160a01b039260ff169060201c611e56565b1690565b61210c6001916120f7565b8015611f45575f19046120e6565b906b048a170391f7dc42444e8fa28102908082046b048a170391f7dc42444e8fa21490151715611c4d5760801c906120df565b916d2216e584f5fa1ea926041bedfe988102908082046d2216e584f5fa1ea926041bedfe981490151715611c4d5760801c916120d5565b916e5d6af8dedb81196699c329225ee6048102908082046e5d6af8dedb81196699c329225ee6041490151715611c4d5760801c916120ca565b916f09aa508b5b7a84e1c677de54f3e99bc98102908082046f09aa508b5b7a84e1c677de54f3e99bc91490151715611c4d5760801c916120bf565b916f31be135f97d08fd981231505542fcfa68102908082046f31be135f97d08fd981231505542fcfa61490151715611c4d5760801c916120b4565b916f70d869a156d2a1b890bb3df62baf32f78102908082046f70d869a156d2a1b890bb3df62baf32f71490151715611c4d5760801c916120aa565b916fa9f746462d870fdf8a65dc1f90e061e58102908082046fa9f746462d870fdf8a65dc1f90e061e51490151715611c4d5760801c916120a0565b916fd097f3bdfd2022b8845ad8f792aa58258102908082046fd097f3bdfd2022b8845ad8f792aa58251490151715611c4d5760801c91612096565b916fe7159475a2c29b7443b29c7fa6e889d98102908082046fe7159475a2c29b7443b29c7fa6e889d91490151715611c4d5760801c9161208c565b916ff3392b0822b70005940c7a398e4b70f38102908082046ff3392b0822b70005940c7a398e4b70f31490151715611c4d5760801c91612082565b916ff987a7253ac413176f2b074cf7815e548102908082046ff987a7253ac413176f2b074cf7815e541490151715611c4d5760801c91612078565b916ffcbe86c7900a88aedcffc83b479aa3a48102908082046ffcbe86c7900a88aedcffc83b479aa3a41490151715611c4d5760801c9161206e565b916ffe5dee046a99a2a811c461f1969c30538102908082046ffe5dee046a99a2a811c461f1969c30531490151715611c4d5760801c91612064565b916fff2ea16466c96a3843ec78b326b528618102908082046fff2ea16466c96a3843ec78b326b528611490151715611c4d5760801c9161205b565b916fff973b41fa98c081472e6896dfb254c08102908082046fff973b41fa98c081472e6896dfb254c01490151715611c4d5760801c91612052565b916fffcb9843d60f6159c9db58835c9266448102908082046fffcb9843d60f6159c9db58835c9266441490151715611c4d5760801c91612049565b916fffe5caca7e10e4e61c3624eaa0941cd08102908082046fffe5caca7e10e4e61c3624eaa0941cd01490151715611c4d5760801c91612040565b916ffff2e50f5f656932ef12357cf3c7fdcc8102908082046ffff2e50f5f656932ef12357cf3c7fdcc1490151715611c4d5760801c91612037565b916ffff97272373d413259a46990580e213a8102908082046ffff97272373d413259a46990580e213a1490151715611c4d5760801c9161202e565b6001600160881b03600160801b612023565b60405162461bcd60e51b81526020600482015260016024820152601560fa1b6044820152606490fd5b80611ff6565b6001600160a01b039182169082160391908211611c4d57565b6001600160801b03916125fc91906001600160a01b038082169083161161263c576125bd565b6001600160a01b03169116612616600160601b8383612ba7565b91600160601b91096126255790565b5f19811015611a1d575f198114611c4d5760010190565b906125bd565b90916001600160a01b03808416908316116126af575b6001600160a01b038216928315611a1d576126a3926001600160a01b039061268090836125bd565b6001600160a01b039092169291169060601b600160601b600160e01b0316612b73565b90808206151591040190565b909190612658565b905f81600f0b125f146126eb576001600160801b036126d68192611e70565b169116036001600160801b038111611c4d5790565b90611f30916001600160801b031690611fb6565b6040516370a0823160e01b81523060048201526020816024815f7f00000000000000000000000000000000000000000000000000000000000000006001600160a01b03165af1908115611a12575f91612756575090565b90506020813d60201161277d575b8161277160209383611dc1565b81010312611a1d575190565b3d9150612764565b6040516370a0823160e01b81523060048201526020816024815f7f00000000000000000000000000000000000000000000000000000000000000006001600160a01b03165af1908115611a12575f91612756575090565b60020b60010190627fffff8213627fffff19831217611c4d57565b9060020b9060020b0190627fffff198212627fffff831317611c4d57565b9060ff8091169116039060ff8211611c4d57565b9060020b9060020b02908160020b918203611c4d57565b6001600160a01b038116906401000276a382101580612b56575b15612b2d57640100000000600160c01b039060201b16806001600160801b03811160071b90811c67ffffffffffffffff811160061b90811c63ffffffff811160051b90811c61ffff811160041b90811c9060ff821160031b91821c92600f841160021b93841c94600160038711811b96871c1196171717171717179060808210155f14612b1b57607e198201828111611c4d571c5b607f198201918213600116611c4d57800280607f1c8160ff1c1c800280607f1c8160ff1c1c800280607f1c8160ff1c1c800280607f1c8160ff1c1c800280607f1c8160ff1c1c800280607f1c8160ff1c1c80029081607f1c8260ff1c1c80029283607f1c8460ff1c1c80029485607f1c8660ff1c1c80029687607f1c8860ff1c1c80029889607f1c8a60ff1c1c80029a8b607f1c8c60ff1c1c80029c8d80607f1c9060ff1c1c800260cd1c6604000000000000169d60cc1c6608000000000000169c60cb1c6610000000000000169b60ca1c6620000000000000169a60c91c6640000000000000169960c81c6680000000000000169860c71c670100000000000000169760c61c670200000000000000169660c51c670400000000000000169560c41c670800000000000000169460c31c671000000000000000169360c21c672000000000000000169260c11c674000000000000000169160c01c678000000000000000169060401b1717171717171717171717171717693627a301d71055774c85810290808205693627a301d71055774c851490151715611c4d576f028f6481ab7f045a5af012a19d003aa9198101600182821316611c4d5760801d60020b906fdb2df09e81959a81455e260799a0632f8101905f6fdb2df09e81959a81455e260799a0632f83129112908015821691151617611c4d5760801d60020b91818303612afb5750905090565b6001600160a01b03612b0c84611fe0565b1611612b16575090565b905090565b81607f03607f8111611c4d571b6128ef565b60405162461bcd60e51b81526020600482015260016024820152602960f91b6044820152606490fd5b5073fffd8963efd1fc6a506488495d951d5263988d26821061285a565b929190612b81828286612ba7565b938215611f455709612b8f57565b905f19811015611a1d575f198114611c4d5760010190565b90915f198383099280830292838086109503948086039514612c395782851015612c225790829109600182190182168092046002816003021880820260020302808202600203028082026002030280820260020302808202600203028091026002030293600183805f03040190848311900302920304170290565b8285631dcf306360e21b5f5260045260245260445ffd5b505090611f309250611fd6565b60609190911b600160601b600160e01b0316916001600160a01b0390911690818102811582820484141715611c4d5782612c808383611fd6565b14612cad575b50612c94612c999284611fd6565b611e56565b80820491061515016001600160a01b031690565b612cb79084611e56565b838110612c86576001600160a01b039361210c93919250612b7356fee1d9e0a6e3b8259d30aaa9d6c731c4b8596e3ffed7c174ec05844e5d226c8ceba2646970667358221220702d5d4b9e30cbd2da5b41d74145ab50aca4fb53e3bf81ad4aaa7a217ce014fe64736f6c634300081d0033a26469706673582212208b8f38e67803fb2b947468ad461ce45ad43827a1758bf006cec3fdded489e98464736f6c634300081d0033","linkReferences":{"src/lib/TickBitmap.sol":{"TickBitmap":[{"start":4929,"length":20},{"start":5002,"length":20},{"start":9550,"length":20}]}}},"methodIdentifiers":{"factory()":"c45a0155","quote(bytes,uint256)":"33224ae1","quoteSingle((address,address,uint24,uint256,uint160))":"402358a5","uniswapV3SwapCallback(int256,int256,bytes)":"fa461e33"},"storageLayout":{"storage":[],"types":{}},"id":27}