{"abi":[{"type":"function","name":"position","inputs":[{"name":"tick","type":"int24","internalType":"int24"}],"outputs":[{"name":"wordPos","type":"int16","internalType":"int16"},{"name":"bitPos","type":"uint8","internalType":"uint8"}],"stateMutability":"pure"}],"bytecode":{"object":"0x6080806040523460175760909081601c823930815050f35b5f80fdfe60808060405260043610156011575f80fd5b5f3560e01c633e7b7779146023575f80fd5b6020366003190112605657600435908160020b80920360565760ff6101008360409460081d60010b845207166020820152f35b5f80fdfea2646970667358221220f6add09dc99e1394de895aa498ca8ebce40aa342babeac4f3ba3b1e759f1f3df64736f6c634300081d0033","linkReferences":{}},"methodIdentifiers":{"position(int24)":"3e7b7779"},"storageLayout":{"storage":[],"types":{}},"id":44}